{
  "contractName": "ERC721",
  "abi": [
    {
      "inputs": [],
      "stateMutability": "nonpayable",
      "type": "constructor"
    },
    {
      "anonymous": false,
      "inputs": [
        {
          "indexed": true,
          "internalType": "address",
          "name": "_owner",
          "type": "address"
        },
        {
          "indexed": true,
          "internalType": "address",
          "name": "_approved",
          "type": "address"
        },
        {
          "indexed": true,
          "internalType": "uint256",
          "name": "_tokenId",
          "type": "uint256"
        }
      ],
      "name": "Approval",
      "type": "event"
    },
    {
      "anonymous": false,
      "inputs": [
        {
          "indexed": true,
          "internalType": "address",
          "name": "_from",
          "type": "address"
        },
        {
          "indexed": true,
          "internalType": "address",
          "name": "_to",
          "type": "address"
        },
        {
          "indexed": true,
          "internalType": "uint256",
          "name": "_tokenId",
          "type": "uint256"
        }
      ],
      "name": "Transfer",
      "type": "event"
    },
    {
      "inputs": [
        {
          "internalType": "bytes4",
          "name": "interfaceID",
          "type": "bytes4"
        }
      ],
      "name": "supportsInterface",
      "outputs": [
        {
          "internalType": "bool",
          "name": "",
          "type": "bool"
        }
      ],
      "stateMutability": "view",
      "type": "function"
    },
    {
      "inputs": [
        {
          "internalType": "address",
          "name": "_owner",
          "type": "address"
        }
      ],
      "name": "balanceOf",
      "outputs": [
        {
          "internalType": "uint256",
          "name": "",
          "type": "uint256"
        }
      ],
      "stateMutability": "view",
      "type": "function"
    },
    {
      "inputs": [
        {
          "internalType": "uint256",
          "name": "_tokenId",
          "type": "uint256"
        }
      ],
      "name": "ownerOf",
      "outputs": [
        {
          "internalType": "address",
          "name": "",
          "type": "address"
        }
      ],
      "stateMutability": "view",
      "type": "function"
    },
    {
      "inputs": [
        {
          "internalType": "address",
          "name": "_from",
          "type": "address"
        },
        {
          "internalType": "address",
          "name": "_to",
          "type": "address"
        },
        {
          "internalType": "uint256",
          "name": "_tokenId",
          "type": "uint256"
        }
      ],
      "name": "_transferFrom",
      "outputs": [],
      "stateMutability": "nonpayable",
      "type": "function"
    },
    {
      "inputs": [
        {
          "internalType": "address",
          "name": "_from",
          "type": "address"
        },
        {
          "internalType": "address",
          "name": "_to",
          "type": "address"
        },
        {
          "internalType": "uint256",
          "name": "_tokenId",
          "type": "uint256"
        }
      ],
      "name": "transferFrom",
      "outputs": [],
      "stateMutability": "nonpayable",
      "type": "function"
    }
  ],
  "bytecode": "0x608060405234801561001057600080fd5b506100407f01ffc9a7a5cef8baa21ed3c5c0d7e23accb804b619e9333b597f47a0d84076e26100b860201b60201c565b6100b37f22c82707ba960a14c7592ffb6b8cfaa073fed0048a84cc7fa41f6b5bd8e7f2e47f3a6eb71757dfc6e784c1459d26270140c2c147d95ca985c80026fc5301c3eca17f8a7e378434598edc36d108689a030cbc9d7d465de4f74c71bae1028eed6a881b18186100b860201b60201c565b610230565b63ffffffff60e01b817bffffffffffffffffffffffffffffffffffffffffffffffffffffffff19161415610121576040517f08c379a000000000000000000000000000000000000000000000000000000000815260040161011890610210565b60405180910390fd5b6001600080837bffffffffffffffffffffffffffffffffffffffffffffffffffffffff19167bffffffffffffffffffffffffffffffffffffffffffffffffffffffff1916815260200190815260200160002060006101000a81548160ff02191690831515021790555050565b600082825260208201905092915050565b7f4552433136353a20696e76616c696420496e746572666163652072657175657360008201527f7400000000000000000000000000000000000000000000000000000000000000602082015250565b60006101fa60218361018d565b91506102058261019e565b604082019050919050565b60006020820190508181036000830152610229816101ed565b9050919050565b610a568061023f6000396000f3fe608060405234801561001057600080fd5b50600436106100575760003560e01c806301ffc9a71461005c57806323b872dd1461008c5780636352211e146100a857806370a08231146100d8578063cb71253514610108575b600080fd5b610076600480360381019061007191906105ce565b610124565b6040516100839190610616565b60405180910390f35b6100a660048036038101906100a191906106c5565b61018b565b005b6100c260048036038101906100bd9190610718565b61019b565b6040516100cf9190610754565b60405180910390f35b6100f260048036038101906100ed919061076f565b6101dd565b6040516100ff91906107ab565b60405180910390f35b610122600480360381019061011d91906106c5565b61029c565b005b6000806000837bffffffffffffffffffffffffffffffffffffffffffffffffffffffff19167bffffffffffffffffffffffffffffffffffffffffffffffffffffffff1916815260200190815260200160002060009054906101000a900460ff169050919050565b61019683838361029c565b505050565b6000806001600084815260200190815260200160002060009054906101000a900473ffffffffffffffffffffffffffffffffffffffff16905080915050919050565b60008073ffffffffffffffffffffffffffffffffffffffff168273ffffffffffffffffffffffffffffffffffffffff16141561024e576040517f08c379a000000000000000000000000000000000000000000000000000000000815260040161024590610849565b60405180910390fd5b610295600260008473ffffffffffffffffffffffffffffffffffffffff1673ffffffffffffffffffffffffffffffffffffffff1681526020019081526020016000206104c2565b9050919050565b600073ffffffffffffffffffffffffffffffffffffffff168273ffffffffffffffffffffffffffffffffffffffff16141561030c576040517f08c379a0000000000000000000000000000000000000000000000000000000008152600401610303906108db565b60405180910390fd5b6103158161019b565b73ffffffffffffffffffffffffffffffffffffffff168373ffffffffffffffffffffffffffffffffffffffff1614610382576040517f08c379a0000000000000000000000000000000000000000000000000000000008152600401610379906108db565b60405180910390fd5b6103c9600260008573ffffffffffffffffffffffffffffffffffffffff1673ffffffffffffffffffffffffffffffffffffffff1681526020019081526020016000206104d0565b610410600260008473ffffffffffffffffffffffffffffffffffffffff1673ffffffffffffffffffffffffffffffffffffffff1681526020019081526020016000206104f3565b816001600083815260200190815260200160002060006101000a81548173ffffffffffffffffffffffffffffffffffffffff021916908373ffffffffffffffffffffffffffffffffffffffff160217905550808273ffffffffffffffffffffffffffffffffffffffff168473ffffffffffffffffffffffffffffffffffffffff167fddf252ad1be2c89b69c2b068fc378daa952ba7f163c4a11628f55a4df523b3ef60405160405180910390a4505050565b600081600001549050919050565b6104e86001826000015461051290919063ffffffff16565b816000018190555050565b6001816000016000828254610508919061092a565b9250508190555050565b600082821115610557576040517f08c379a000000000000000000000000000000000000000000000000000000000815260040161054e906109cc565b60405180910390fd5b6000828461056591906109ec565b90508091505092915050565b600080fd5b60007fffffffff0000000000000000000000000000000000000000000000000000000082169050919050565b6105ab81610576565b81146105b657600080fd5b50565b6000813590506105c8816105a2565b92915050565b6000602082840312156105e4576105e3610571565b5b60006105f2848285016105b9565b91505092915050565b60008115159050919050565b610610816105fb565b82525050565b600060208201905061062b6000830184610607565b92915050565b600073ffffffffffffffffffffffffffffffffffffffff82169050919050565b600061065c82610631565b9050919050565b61066c81610651565b811461067757600080fd5b50565b60008135905061068981610663565b92915050565b6000819050919050565b6106a28161068f565b81146106ad57600080fd5b50565b6000813590506106bf81610699565b92915050565b6000806000606084860312156106de576106dd610571565b5b60006106ec8682870161067a565b93505060206106fd8682870161067a565b925050604061070e868287016106b0565b9150509250925092565b60006020828403121561072e5761072d610571565b5b600061073c848285016106b0565b91505092915050565b61074e81610651565b82525050565b60006020820190506107696000830184610745565b92915050565b60006020828403121561078557610784610571565b5b60006107938482850161067a565b91505092915050565b6107a58161068f565b82525050565b60006020820190506107c0600083018461079c565b92915050565b600082825260208201905092915050565b7f6f776e657220717565727920666f72206e6f6e2d6578697374656e7420746f6b60008201527f656e000000000000000000000000000000000000000000000000000000000000602082015250565b60006108336022836107c6565b915061083e826107d7565b604082019050919050565b6000602082019050818103600083015261086281610826565b9050919050565b7f5245433732313a206d696e74696e6720746f20746865207a65726f206164647260008201527f6573730000000000000000000000000000000000000000000000000000000000602082015250565b60006108c56023836107c6565b91506108d082610869565b604082019050919050565b600060208201905081810360008301526108f4816108b8565b9050919050565b7f4e487b7100000000000000000000000000000000000000000000000000000000600052601160045260246000fd5b60006109358261068f565b91506109408361068f565b9250827fffffffffffffffffffffffffffffffffffffffffffffffffffffffffffffffff03821115610975576109746108fb565b5b828201905092915050565b7f536166654d6174683a207375627472616374696f6e204f766572666c6f770000600082015250565b60006109b6601e836107c6565b91506109c182610980565b602082019050919050565b600060208201905081810360008301526109e5816109a9565b9050919050565b60006109f78261068f565b9150610a028361068f565b925082821015610a1557610a146108fb565b5b82820390509291505056fea264697066735822122016241a93e08c7ba4818a81a6238140ef194a0915c0ab36d8c9339e59d809f4d964736f6c634300080c0033",
  "immutableReferences": {},
  "source": "// SPDX-License-Identifier: MIT\npragma solidity ^0.8.0;\n\nimport './ERC165.sol';\nimport './interfaces/IERC721.sol';\nimport './libraries/Counters.sol';\n/*\n    1. nft to point the address \n    2. keep track of the token ids. \n    3. keep track of token owner addresses to token ids\n    4. keep track of how many tokens an onwer address has\n    5. create an event that emits a Transfer log -contract address, where is is being minted to then id \n*/\n\ncontract ERC721 is ERC165, IERC721{\n    using Counters for Counters.Counter;\n\n    // event Transfer(\n    //     address indexed from, \n    //     address indexed to, \n    //     uint256 indexed tokenId);\n\n    // event Approval (\n    //     address indexed owner, \n    //     address indexed approval, \n    //     uint256 indexed tokenId);\n\n    //Mapping from token id to the owner\n    mapping(uint256 => address) private _tokenOwner;\n    \n    //Mapping from owner to number of owned tokens\n    mapping(address => Counters.Counter) private _OwnertokensCount;\n\n    // Mapping from t token id to approved addresses\n    mapping(uint256 => address) private _tokenApprovals;\n\n    constructor(){\n        _registerInterface(bytes4(\n            keccak256('balanceOf(bytes4)')^\n            keccak256('ownerOf(bytes4)')^\n            keccak256('transferFrom(bytes4)')\n        ));\n    }\n\n\n    function balanceOf(address _owner) public override view returns(uint256){\n        require(_owner != address(0),\"owner query for non-existent token\"); \n        return _OwnertokensCount[_owner].current();\n    }\n\n    function ownerOf(uint256 _tokenId) public override view returns(address){\n        address owner = _tokenOwner[_tokenId];\n        return owner;\n    }\n\n    function _exists(uint256 tokenId) internal view returns(bool){\n        address owner = _tokenOwner[tokenId];\n        return owner != address(0); // not zero\n    }\n\n    // this function is not safe\n    // any type of mathematics can be held to dubious standards\n    function _mint(address to,uint256 tokenId) internal virtual{\n        require(to != address(0),\"REC721: minting to the zero address\");   \n        require (!_exists(tokenId));\n\n        _tokenOwner[tokenId] = to;\n        _OwnertokensCount[to].increment();  \n\n        emit Transfer(address(0), to,tokenId);\n    }\n\n    // this function is not safe\n    // any type of mathematics can be held to dubious standards\n    function _transferFrom(address _from, address _to, uint256 _tokenId)  public {\n        require(_to != address(0),\"REC721: minting to the zero address\");\n        require(_from == ownerOf(_tokenId),\"REC721: minting to the zero address\");\n        _OwnertokensCount[_from].decrement();\n        _OwnertokensCount[_to].increment(); \n        _tokenOwner[_tokenId] = _to;\n        emit Transfer(_from, _to,_tokenId);\n    }\n\n    function transferFrom(address _from, address _to, uint256 _tokenId) override public {\n        // require(isApprovedOrOwner(msg.sender,_tokenId));\n        _transferFrom(_from,_to,_tokenId);\n    }\n \n    // function approve(address _to, uint256 tokenId)public {\n    //     address owner = ownerOf(tokenId);\n    //     require(_to!= owner, 'Error - approval to current owner');\n    //     require(msg.sender == owner,'Current caller is not the owner');\n    //     _tokenApprovals[tokenId]= _to;\n    //     emit Approval(owner, _to, tokenId);\n    // }\n\n    // function isApprovedOrOwner(address spender, uint256 tokenId) internal{\n    //     require(_exists(tokenId), 'token does not exit');\n    //     address owner = ownerOf(tokenId);\n    //     return(spender == owner);\n    // }\n\n}\n",
  "sourcePath": "/home/softsquare/Desktop/Projects/nft-marketplace-starter-kit/src/contracts/ERC721.sol",
  "compiler": {
    "name": "solc",
    "version": "0.8.12+commit.f00d7308.Emscripten.clang"
  },
  "schemaVersion": "3.4.4",
  "updatedAt": "2022-02-22T06:47:57.687Z",
  "devdoc": {
    "kind": "dev",
    "methods": {
      "balanceOf(address)": {
        "details": "NFTs assigned to the zero address are considered invalid, and this  function throws for queries about the zero address.",
        "params": {
          "_owner": "An address for whom to query the balance"
        },
        "returns": {
          "_0": "The number of NFTs owned by `_owner`, possibly zero"
        }
      },
      "ownerOf(uint256)": {
        "details": "NFTs assigned to zero address are considered invalid, and queries  about them do throw.",
        "params": {
          "_tokenId": "The identifier for an NFT"
        },
        "returns": {
          "_0": "The address of the owner of the NFT"
        }
      },
      "supportsInterface(bytes4)": {
        "details": "Interface identification is specified in ERC-165. This function  uses less than 30,000 gas.",
        "params": {
          "interfaceID": "The interface identifier, as specified in ERC-165"
        },
        "returns": {
          "_0": "`true` if the contract implements `interfaceID` and  `interfaceID` is not 0xffffffff, `false` otherwise"
        }
      },
      "transferFrom(address,address,uint256)": {
        "details": "Throws unless `msg.sender` is the current owner, an authorized  operator, or the approved address for this NFT. Throws if `_from` is  not the current owner. Throws if `_to` is the zero address. Throws if  `_tokenId` is not a valid NFT.",
        "params": {
          "_from": "The current owner of the NFT",
          "_to": "The new owner",
          "_tokenId": "The NFT to transfer"
        }
      }
    },
    "version": 1
  },
  "userdoc": {
    "kind": "user",
    "methods": {
      "balanceOf(address)": {
        "notice": "Count all NFTs assigned to an owner"
      },
      "ownerOf(uint256)": {
        "notice": "Find the owner of an NFT"
      },
      "supportsInterface(bytes4)": {
        "notice": "Query if a contract implements an interface"
      },
      "transferFrom(address,address,uint256)": {
        "notice": "Transfer ownership of an NFT -- THE CALLER IS RESPONSIBLE  TO CONFIRM THAT `_to` IS CAPABLE OF RECEIVING NFTS OR ELSE  THEY MAY BE PERMANENTLY LOST"
      }
    },
    "version": 1
  }
}