{
  "contractName": "ERC721Enumerable",
  "abi": [
    {
      "anonymous": false,
      "inputs": [
        {
          "indexed": true,
          "internalType": "address",
          "name": "from",
          "type": "address"
        },
        {
          "indexed": true,
          "internalType": "address",
          "name": "to",
          "type": "address"
        },
        {
          "indexed": true,
          "internalType": "uint256",
          "name": "tokenId",
          "type": "uint256"
        }
      ],
      "name": "Trasnfer",
      "type": "event"
    },
    {
      "inputs": [
        {
          "internalType": "address",
          "name": "_owner",
          "type": "address"
        }
      ],
      "name": "balanceOf",
      "outputs": [
        {
          "internalType": "uint256",
          "name": "",
          "type": "uint256"
        }
      ],
      "stateMutability": "view",
      "type": "function"
    },
    {
      "inputs": [
        {
          "internalType": "uint256",
          "name": "_tokenId",
          "type": "uint256"
        }
      ],
      "name": "ownerOf",
      "outputs": [
        {
          "internalType": "address",
          "name": "",
          "type": "address"
        }
      ],
      "stateMutability": "view",
      "type": "function"
    },
    {
      "inputs": [
        {
          "internalType": "address",
          "name": "_from",
          "type": "address"
        },
        {
          "internalType": "address",
          "name": "_to",
          "type": "address"
        },
        {
          "internalType": "uint256",
          "name": "_tokenId",
          "type": "uint256"
        }
      ],
      "name": "transferFrom",
      "outputs": [],
      "stateMutability": "nonpayable",
      "type": "function"
    },
    {
      "inputs": [
        {
          "internalType": "uint256",
          "name": "index",
          "type": "uint256"
        }
      ],
      "name": "tokenByIndex",
      "outputs": [
        {
          "internalType": "uint256",
          "name": "",
          "type": "uint256"
        }
      ],
      "stateMutability": "view",
      "type": "function"
    },
    {
      "inputs": [],
      "name": "tokenByIndex",
      "outputs": [
        {
          "internalType": "uint256",
          "name": "",
          "type": "uint256"
        }
      ],
      "stateMutability": "view",
      "type": "function"
    },
    {
      "inputs": [
        {
          "internalType": "address",
          "name": "owner",
          "type": "address"
        },
        {
          "internalType": "uint256",
          "name": "index",
          "type": "uint256"
        }
      ],
      "name": "tokenOfOwnerByIndex",
      "outputs": [
        {
          "internalType": "uint256",
          "name": "",
          "type": "uint256"
        }
      ],
      "stateMutability": "view",
      "type": "function"
    },
    {
      "inputs": [],
      "name": "totalSupply",
      "outputs": [
        {
          "internalType": "uint256",
          "name": "",
          "type": "uint256"
        }
      ],
      "stateMutability": "view",
      "type": "function"
    }
  ],
  "bytecode": "0x608060405234801561001057600080fd5b50610b05806100206000396000f3fe608060405234801561001057600080fd5b506004361061007d5760003560e01c80634f6ccce71161005b5780634f6ccce7146100ec5780636352211e1461011c57806370a082311461014c57806383d7f6df1461017c5761007d565b806318160ddd1461008257806323b872dd146100a05780632f745c59146100bc575b600080fd5b61008a61019a565b6040516100979190610630565b60405180910390f35b6100ba60048036038101906100b591906106da565b6101a7565b005b6100d660048036038101906100d1919061072d565b6101b7565b6040516100e39190610630565b60405180910390f35b6101066004803603810190610101919061076d565b610267565b6040516101139190610630565b60405180910390f35b6101366004803603810190610131919061076d565b6102d8565b60405161014391906107a9565b60405180910390f35b610166600480360381019061016191906107c4565b610319565b6040516101739190610630565b60405180910390f35b6101846103d1565b6040516101919190610630565b60405180910390f35b6000600380549050905090565b6101b28383836103d6565b505050565b60006101c283610319565b8210610203576040517f08c379a00000000000000000000000000000000000000000000000000000000081526004016101fa9061084e565b60405180910390fd5b600560008473ffffffffffffffffffffffffffffffffffffffff1673ffffffffffffffffffffffffffffffffffffffff16815260200190815260200160002082815481106102545761025361086e565b5b9060005260206000200154905092915050565b600061027161019a565b82106102b2576040517f08c379a00000000000000000000000000000000000000000000000000000000081526004016102a9906108e9565b60405180910390fd5b600382815481106102c6576102c561086e565b5b90600052602060002001549050919050565b60008060008084815260200190815260200160002060009054906101000a900473ffffffffffffffffffffffffffffffffffffffff16905080915050919050565b60008073ffffffffffffffffffffffffffffffffffffffff168273ffffffffffffffffffffffffffffffffffffffff16141561038a576040517f08c379a00000000000000000000000000000000000000000000000000000000081526004016103819061097b565b60405180910390fd5b600160008373ffffffffffffffffffffffffffffffffffffffff1673ffffffffffffffffffffffffffffffffffffffff168152602001908152602001600020549050919050565b600090565b600073ffffffffffffffffffffffffffffffffffffffff168273ffffffffffffffffffffffffffffffffffffffff161415610446576040517f08c379a000000000000000000000000000000000000000000000000000000000815260040161043d90610a0d565b60405180910390fd5b61044f816102d8565b73ffffffffffffffffffffffffffffffffffffffff168373ffffffffffffffffffffffffffffffffffffffff16146104bc576040517f08c379a00000000000000000000000000000000000000000000000000000000081526004016104b390610a0d565b60405180910390fd5b600160008473ffffffffffffffffffffffffffffffffffffffff1673ffffffffffffffffffffffffffffffffffffffff168152602001908152602001600020600081548092919061050c90610a5c565b9190505550600160008373ffffffffffffffffffffffffffffffffffffffff1673ffffffffffffffffffffffffffffffffffffffff168152602001908152602001600020600081548092919061056190610a86565b91905055508160008083815260200190815260200160002060006101000a81548173ffffffffffffffffffffffffffffffffffffffff021916908373ffffffffffffffffffffffffffffffffffffffff160217905550808273ffffffffffffffffffffffffffffffffffffffff168473ffffffffffffffffffffffffffffffffffffffff167f3bad7987490d6d1d80a026e79dff0621bacb49fc40e2899d3c99428833c11a5b60405160405180910390a4505050565b6000819050919050565b61062a81610617565b82525050565b60006020820190506106456000830184610621565b92915050565b600080fd5b600073ffffffffffffffffffffffffffffffffffffffff82169050919050565b600061067b82610650565b9050919050565b61068b81610670565b811461069657600080fd5b50565b6000813590506106a881610682565b92915050565b6106b781610617565b81146106c257600080fd5b50565b6000813590506106d4816106ae565b92915050565b6000806000606084860312156106f3576106f261064b565b5b600061070186828701610699565b935050602061071286828701610699565b9250506040610723868287016106c5565b9150509250925092565b600080604083850312156107445761074361064b565b5b600061075285828601610699565b9250506020610763858286016106c5565b9150509250929050565b6000602082840312156107835761078261064b565b5b6000610791848285016106c5565b91505092915050565b6107a381610670565b82525050565b60006020820190506107be600083018461079a565b92915050565b6000602082840312156107da576107d961064b565b5b60006107e884828501610699565b91505092915050565b600082825260208201905092915050565b7f6f776e657220696e646578206973206f7574206f6620626f756e647321000000600082015250565b6000610838601d836107f1565b915061084382610802565b602082019050919050565b600060208201905081810360008301526108678161082b565b9050919050565b7f4e487b7100000000000000000000000000000000000000000000000000000000600052603260045260246000fd5b7f676c6f62616c20696e646578206973206f7574206f6620626f756e6473210000600082015250565b60006108d3601e836107f1565b91506108de8261089d565b602082019050919050565b60006020820190508181036000830152610902816108c6565b9050919050565b7f6f776e657220717565727920666f72206e6f6e2d6578697374656e7420746f6b60008201527f656e000000000000000000000000000000000000000000000000000000000000602082015250565b60006109656022836107f1565b915061097082610909565b604082019050919050565b6000602082019050818103600083015261099481610958565b9050919050565b7f5245433732313a206d696e74696e6720746f20746865207a65726f206164647260008201527f6573730000000000000000000000000000000000000000000000000000000000602082015250565b60006109f76023836107f1565b9150610a028261099b565b604082019050919050565b60006020820190508181036000830152610a26816109ea565b9050919050565b7f4e487b7100000000000000000000000000000000000000000000000000000000600052601160045260246000fd5b6000610a6782610617565b91506000821415610a7b57610a7a610a2d565b5b600182039050919050565b6000610a9182610617565b91507fffffffffffffffffffffffffffffffffffffffffffffffffffffffffffffffff821415610ac457610ac3610a2d565b5b60018201905091905056fea2646970667358221220bdaa2dc0d9d949b230f0576845ff43356d33944e5a406bece1b5ec887ec0a22164736f6c634300080b0033",
  "immutableReferences": {},
  "source": "// SPDX-License-Identifier: MIT\npragma solidity ^0.8.0;\n\nimport './ERC721.sol';\n\ncontract ERC721Enumerable is ERC721{\n\n    uint256[] private _allTokens;\n    // mapping fromt tokenId to position in _allTokens array\n    mapping(uint256 => uint256) private _allTokensIndex;\n    // mapping of owner to list of all owner token ids\n    mapping(address => uint256[]) private _ownedTokens;\n    //mapping from token ID to index of the owner tokens list\n    mapping(uint256 => uint256) private _ownedTokensIndex;\n\n\n    function tokenByIndex() external view returns (uint256){\n\n    } \n\n    function _mint(address to,uint256 tokenId) internal override (ERC721) {\n        super._mint(to, tokenId);\n\n        _addTokensToAllTokenEnumeration(tokenId);\n        _addTokenToOwnerEnumeration(to,tokenId);\n\n    }\n\n    //add tokens to the _alltokens array and set the position indexes\n    function _addTokensToAllTokenEnumeration (uint256 tokenId) private{\n        _allTokensIndex[tokenId] = _allTokens.length;\n        _allTokens.push(tokenId);\n    }\n\n    function _addTokenToOwnerEnumeration (address to,uint256 tokenId) private{\n        _ownedTokensIndex[tokenId] = _ownedTokens[to].length;\n        _ownedTokens[to].push(tokenId);\n    }\n\n    function tokenByIndex(uint256 index) public view returns(uint256){\n        require(index < totalSupply(), 'global index is out of bounds!');\n        return _allTokens[index];\n    } \n\n    function tokenOfOwnerByIndex(address owner, uint256 index) public view returns(uint256){\n        require(index < balanceOf(owner), 'owner index is out of bounds!');\n        return _ownedTokens[owner][index];\n    } \n\n\n    //  return the total supply of the _allTokens array\n    function totalSupply() public view returns (uint256){\n        return _allTokens.length;\n    }\n\n}",
  "sourcePath": "/home/softsquare/Desktop/Projects/nft-marketplace-starter-kit/src/contracts/ERC721Enumerable.sol",
  "compiler": {
    "name": "solc",
    "version": "0.8.11+commit.d7f03943.Emscripten.clang"
  },
  "schemaVersion": "3.4.4",
  "updatedAt": "2022-02-02T11:20:59.274Z",
  "devdoc": {
    "kind": "dev",
    "methods": {},
    "version": 1
  },
  "userdoc": {
    "kind": "user",
    "methods": {},
    "version": 1
  }
}