{
  "contractName": "ERC721",
  "abi": [
    {
      "anonymous": false,
      "inputs": [
        {
          "indexed": true,
          "internalType": "address",
          "name": "from",
          "type": "address"
        },
        {
          "indexed": true,
          "internalType": "address",
          "name": "to",
          "type": "address"
        },
        {
          "indexed": true,
          "internalType": "uint256",
          "name": "tokenId",
          "type": "uint256"
        }
      ],
      "name": "Trasnfer",
      "type": "event"
    },
    {
      "inputs": [
        {
          "internalType": "address",
          "name": "_owner",
          "type": "address"
        }
      ],
      "name": "balanceOf",
      "outputs": [
        {
          "internalType": "uint256",
          "name": "",
          "type": "uint256"
        }
      ],
      "stateMutability": "view",
      "type": "function"
    },
    {
      "inputs": [
        {
          "internalType": "uint256",
          "name": "_tokenId",
          "type": "uint256"
        }
      ],
      "name": "ownerOf",
      "outputs": [
        {
          "internalType": "address",
          "name": "",
          "type": "address"
        }
      ],
      "stateMutability": "view",
      "type": "function"
    },
    {
      "inputs": [
        {
          "internalType": "address",
          "name": "_from",
          "type": "address"
        },
        {
          "internalType": "address",
          "name": "_to",
          "type": "address"
        },
        {
          "internalType": "uint256",
          "name": "_tokenId",
          "type": "uint256"
        }
      ],
      "name": "transferFrom",
      "outputs": [],
      "stateMutability": "nonpayable",
      "type": "function"
    }
  ],
  "bytecode": "0x608060405234801561001057600080fd5b506107b3806100206000396000f3fe608060405234801561001057600080fd5b50600436106100415760003560e01c806323b872dd146100465780636352211e1461006257806370a0823114610092575b600080fd5b610060600480360381019061005b91906104a5565b6100c2565b005b61007c600480360381019061007791906104f8565b6100d2565b6040516100899190610534565b60405180910390f35b6100ac60048036038101906100a7919061054f565b610113565b6040516100b9919061058b565b60405180910390f35b6100cd8383836101cb565b505050565b60008060008084815260200190815260200160002060009054906101000a900473ffffffffffffffffffffffffffffffffffffffff16905080915050919050565b60008073ffffffffffffffffffffffffffffffffffffffff168273ffffffffffffffffffffffffffffffffffffffff161415610184576040517f08c379a000000000000000000000000000000000000000000000000000000000815260040161017b90610629565b60405180910390fd5b600160008373ffffffffffffffffffffffffffffffffffffffff1673ffffffffffffffffffffffffffffffffffffffff168152602001908152602001600020549050919050565b600073ffffffffffffffffffffffffffffffffffffffff168273ffffffffffffffffffffffffffffffffffffffff16141561023b576040517f08c379a0000000000000000000000000000000000000000000000000000000008152600401610232906106bb565b60405180910390fd5b610244816100d2565b73ffffffffffffffffffffffffffffffffffffffff168373ffffffffffffffffffffffffffffffffffffffff16146102b1576040517f08c379a00000000000000000000000000000000000000000000000000000000081526004016102a8906106bb565b60405180910390fd5b600160008473ffffffffffffffffffffffffffffffffffffffff1673ffffffffffffffffffffffffffffffffffffffff16815260200190815260200160002060008154809291906103019061070a565b9190505550600160008373ffffffffffffffffffffffffffffffffffffffff1673ffffffffffffffffffffffffffffffffffffffff168152602001908152602001600020600081548092919061035690610734565b91905055508160008083815260200190815260200160002060006101000a81548173ffffffffffffffffffffffffffffffffffffffff021916908373ffffffffffffffffffffffffffffffffffffffff160217905550808273ffffffffffffffffffffffffffffffffffffffff168473ffffffffffffffffffffffffffffffffffffffff167f3bad7987490d6d1d80a026e79dff0621bacb49fc40e2899d3c99428833c11a5b60405160405180910390a4505050565b600080fd5b600073ffffffffffffffffffffffffffffffffffffffff82169050919050565b600061043c82610411565b9050919050565b61044c81610431565b811461045757600080fd5b50565b60008135905061046981610443565b92915050565b6000819050919050565b6104828161046f565b811461048d57600080fd5b50565b60008135905061049f81610479565b92915050565b6000806000606084860312156104be576104bd61040c565b5b60006104cc8682870161045a565b93505060206104dd8682870161045a565b92505060406104ee86828701610490565b9150509250925092565b60006020828403121561050e5761050d61040c565b5b600061051c84828501610490565b91505092915050565b61052e81610431565b82525050565b60006020820190506105496000830184610525565b92915050565b6000602082840312156105655761056461040c565b5b60006105738482850161045a565b91505092915050565b6105858161046f565b82525050565b60006020820190506105a0600083018461057c565b92915050565b600082825260208201905092915050565b7f6f776e657220717565727920666f72206e6f6e2d6578697374656e7420746f6b60008201527f656e000000000000000000000000000000000000000000000000000000000000602082015250565b60006106136022836105a6565b915061061e826105b7565b604082019050919050565b6000602082019050818103600083015261064281610606565b9050919050565b7f5245433732313a206d696e74696e6720746f20746865207a65726f206164647260008201527f6573730000000000000000000000000000000000000000000000000000000000602082015250565b60006106a56023836105a6565b91506106b082610649565b604082019050919050565b600060208201905081810360008301526106d481610698565b9050919050565b7f4e487b7100000000000000000000000000000000000000000000000000000000600052601160045260246000fd5b60006107158261046f565b91506000821415610729576107286106db565b5b600182039050919050565b600061073f8261046f565b91507fffffffffffffffffffffffffffffffffffffffffffffffffffffffffffffffff821415610772576107716106db565b5b60018201905091905056fea2646970667358221220ebb62a649c096a70590fe5506462439f0ed3a542d8b47d6762cffd3df38ca7a164736f6c634300080b0033",
  "immutableReferences": {},
  "source": "// SPDX-License-Identifier: MIT\npragma solidity ^0.8.0;\n\n/*\n    1. nft to point the address \n    2. keep track of the token ids. \n    3. keep track of token owner addresses to token ids\n    4. keep track of how many tokens an onwer address has\n    5. create an event that emits a trasnfer log -contract address, where is is being minted to then id \n*/\n\ncontract ERC721{\n\n    event Trasnfer(\n        address indexed from, \n        address indexed to, \n        uint256 indexed tokenId);\n\n    //Mapping from token id to the owner\n    mapping(uint256 => address) private _tokenOwner;\n    \n    //Mapping from owner to number of owned tokens\n    mapping(address => uint) private _OwnertokensCount;\n\n    // Mapping from t token id to approved addresses\n    mapping(uint256 => address) private _tokenApprovals;\n\n    function balanceOf(address _owner) public view returns(uint256){\n        require(_owner != address(0),\"owner query for non-existent token\"); \n        return _OwnertokensCount[_owner];\n    }\n\n    function ownerOf(uint256 _tokenId) public view returns(address){\n        address owner = _tokenOwner[_tokenId];\n        return owner;\n    }\n\n    function _exists(uint256 tokenId) internal view returns(bool){\n        address owner = _tokenOwner[tokenId];\n        return owner != address(0); // not zero\n    }\n\n    function _mint(address to,uint256 tokenId) internal virtual{\n        require(to != address(0),\"REC721: minting to the zero address\");   \n        require (!_exists(tokenId));\n        _tokenOwner[tokenId] = to;\n        _OwnertokensCount[to]++;\n\n        emit Trasnfer(address(0), to,tokenId);\n    }\n\n    function _transferFrom(address _from, address _to, uint256 _tokenId) internal {\n        require(_to != address(0),\"REC721: minting to the zero address\");\n        require(_from == ownerOf(_tokenId),\"REC721: minting to the zero address\");\n        _OwnertokensCount[_from]--;\n        _OwnertokensCount[_to]++;\n        _tokenOwner[_tokenId] = _to;\n        emit Trasnfer(_from, _to,_tokenId);\n    }\n\n    function transferFrom(address _from, address _to, uint256 _tokenId) public {\n        _transferFrom(_from,_to,_tokenId);\n    }\n \n\n}\n",
  "sourcePath": "/home/softsquare/Desktop/Projects/nft-marketplace-starter-kit/src/contracts/ERC721.sol",
  "compiler": {
    "name": "solc",
    "version": "0.8.11+commit.d7f03943.Emscripten.clang"
  },
  "schemaVersion": "3.4.4",
  "updatedAt": "2022-02-02T11:20:59.266Z",
  "devdoc": {
    "kind": "dev",
    "methods": {},
    "version": 1
  },
  "userdoc": {
    "kind": "user",
    "methods": {},
    "version": 1
  }
}