{
  "contractName": "KryptoBird",
  "abi": [
    {
      "inputs": [],
      "stateMutability": "nonpayable",
      "type": "constructor"
    },
    {
      "anonymous": false,
      "inputs": [
        {
          "indexed": true,
          "internalType": "address",
          "name": "_owner",
          "type": "address"
        },
        {
          "indexed": true,
          "internalType": "address",
          "name": "_approved",
          "type": "address"
        },
        {
          "indexed": true,
          "internalType": "uint256",
          "name": "_tokenId",
          "type": "uint256"
        }
      ],
      "name": "Approval",
      "type": "event"
    },
    {
      "anonymous": false,
      "inputs": [
        {
          "indexed": true,
          "internalType": "address",
          "name": "_from",
          "type": "address"
        },
        {
          "indexed": true,
          "internalType": "address",
          "name": "_to",
          "type": "address"
        },
        {
          "indexed": true,
          "internalType": "uint256",
          "name": "_tokenId",
          "type": "uint256"
        }
      ],
      "name": "Transfer",
      "type": "event"
    },
    {
      "inputs": [
        {
          "internalType": "address",
          "name": "_from",
          "type": "address"
        },
        {
          "internalType": "address",
          "name": "_to",
          "type": "address"
        },
        {
          "internalType": "uint256",
          "name": "_tokenId",
          "type": "uint256"
        }
      ],
      "name": "_transferFrom",
      "outputs": [],
      "stateMutability": "nonpayable",
      "type": "function"
    },
    {
      "inputs": [
        {
          "internalType": "address",
          "name": "_owner",
          "type": "address"
        }
      ],
      "name": "balanceOf",
      "outputs": [
        {
          "internalType": "uint256",
          "name": "",
          "type": "uint256"
        }
      ],
      "stateMutability": "view",
      "type": "function"
    },
    {
      "inputs": [
        {
          "internalType": "uint256",
          "name": "",
          "type": "uint256"
        }
      ],
      "name": "kryptoBird",
      "outputs": [
        {
          "internalType": "string",
          "name": "",
          "type": "string"
        }
      ],
      "stateMutability": "view",
      "type": "function"
    },
    {
      "inputs": [],
      "name": "name",
      "outputs": [
        {
          "internalType": "string",
          "name": "",
          "type": "string"
        }
      ],
      "stateMutability": "view",
      "type": "function"
    },
    {
      "inputs": [
        {
          "internalType": "uint256",
          "name": "_tokenId",
          "type": "uint256"
        }
      ],
      "name": "ownerOf",
      "outputs": [
        {
          "internalType": "address",
          "name": "",
          "type": "address"
        }
      ],
      "stateMutability": "view",
      "type": "function"
    },
    {
      "inputs": [
        {
          "internalType": "bytes4",
          "name": "interfaceID",
          "type": "bytes4"
        }
      ],
      "name": "supportsInterface",
      "outputs": [
        {
          "internalType": "bool",
          "name": "",
          "type": "bool"
        }
      ],
      "stateMutability": "view",
      "type": "function"
    },
    {
      "inputs": [],
      "name": "symbol",
      "outputs": [
        {
          "internalType": "string",
          "name": "",
          "type": "string"
        }
      ],
      "stateMutability": "view",
      "type": "function"
    },
    {
      "inputs": [
        {
          "internalType": "uint256",
          "name": "index",
          "type": "uint256"
        }
      ],
      "name": "tokenByIndex",
      "outputs": [
        {
          "internalType": "uint256",
          "name": "",
          "type": "uint256"
        }
      ],
      "stateMutability": "view",
      "type": "function"
    },
    {
      "inputs": [],
      "name": "tokenByIndex",
      "outputs": [
        {
          "internalType": "uint256",
          "name": "",
          "type": "uint256"
        }
      ],
      "stateMutability": "view",
      "type": "function"
    },
    {
      "inputs": [
        {
          "internalType": "address",
          "name": "owner",
          "type": "address"
        },
        {
          "internalType": "uint256",
          "name": "index",
          "type": "uint256"
        }
      ],
      "name": "tokenOfOwnerByIndex",
      "outputs": [
        {
          "internalType": "uint256",
          "name": "",
          "type": "uint256"
        }
      ],
      "stateMutability": "view",
      "type": "function"
    },
    {
      "inputs": [],
      "name": "totalSupply",
      "outputs": [
        {
          "internalType": "uint256",
          "name": "",
          "type": "uint256"
        }
      ],
      "stateMutability": "view",
      "type": "function"
    },
    {
      "inputs": [
        {
          "internalType": "address",
          "name": "_from",
          "type": "address"
        },
        {
          "internalType": "address",
          "name": "_to",
          "type": "address"
        },
        {
          "internalType": "uint256",
          "name": "_tokenId",
          "type": "uint256"
        }
      ],
      "name": "transferFrom",
      "outputs": [],
      "stateMutability": "nonpayable",
      "type": "function"
    },
    {
      "inputs": [
        {
          "internalType": "string",
          "name": "_kryptoBird",
          "type": "string"
        }
      ],
      "name": "mint",
      "outputs": [],
      "stateMutability": "nonpayable",
      "type": "function"
    }
  ],
  "bytecode": "0x60806040523480156200001157600080fd5b506040518060400160405280600a81526020017f4b727970746f42697264000000000000000000000000000000000000000000008152506040518060400160405280600681526020017f4b424952445a00000000000000000000000000000000000000000000000000008152508181620000b17f01ffc9a7a5cef8baa21ed3c5c0d7e23accb804b619e9333b597f47a0d84076e26200022a60201b60201c565b620001047f13b182f4c0e5b2efbac0efe6cf6d756c8b89f4b79c5707a043ed9ea740574ee97f7feaf19471f34a12a7eaf32d5f3090aa2260ea8624dc8a138e74e0bf0f623076186200022a60201b60201c565b81600190805190602001906200011c92919062000302565b5080600290805190602001906200013592919062000302565b505050620001ad7f22c82707ba960a14c7592ffb6b8cfaa073fed0048a84cc7fa41f6b5bd8e7f2e47f3a6eb71757dfc6e784c1459d26270140c2c147d95ca985c80026fc5301c3eca17f8a7e378434598edc36d108689a030cbc9d7d465de4f74c71bae1028eed6a881b18186200022a60201b60201c565b620002227f8230223f691b981717299fae9549350a0d894555723531f02108b1f522c1a7977f6da5e1284143cdd2d15038a59bde3be031250f00291d64494c12d967b3a4e0c37fc53637662700e6c65104059db8bba34439e0c32483ab7c34e3ccae52c739549518186200022a60201b60201c565b5050620004c0565b63ffffffff60e01b817bffffffffffffffffffffffffffffffffffffffffffffffffffffffff1916141562000296576040517f08c379a00000000000000000000000000000000000000000000000000000000081526004016200028d9062000439565b60405180910390fd5b6001600080837bffffffffffffffffffffffffffffffffffffffffffffffffffffffff19167bffffffffffffffffffffffffffffffffffffffffffffffffffffffff1916815260200190815260200160002060006101000a81548160ff02191690831515021790555050565b82805462000310906200048a565b90600052602060002090601f01602090048101928262000334576000855562000380565b82601f106200034f57805160ff191683800117855562000380565b8280016001018555821562000380579182015b828111156200037f57825182559160200191906001019062000362565b5b5090506200038f919062000393565b5090565b5b80821115620003ae57600081600090555060010162000394565b5090565b600082825260208201905092915050565b7f4552433136353a20696e76616c696420496e746572666163652072657175657360008201527f7400000000000000000000000000000000000000000000000000000000000000602082015250565b600062000421602183620003b2565b91506200042e82620003c3565b604082019050919050565b60006020820190508181036000830152620004548162000412565b9050919050565b7f4e487b7100000000000000000000000000000000000000000000000000000000600052602260045260246000fd5b60006002820490506001821680620004a357607f821691505b60208210811415620004ba57620004b96200045b565b5b50919050565b61185580620004d06000396000f3fe608060405234801561001057600080fd5b50600436106100cf5760003560e01c80634f6ccce71161008c57806383d7f6df1161006657806383d7f6df1461024c57806395d89b411461026a578063cb71253514610288578063d85d3d27146102a4576100cf565b80634f6ccce7146101bc5780636352211e146101ec57806370a082311461021c576100cf565b806301ffc9a7146100d4578063057e4ee61461010457806306fdde031461013457806318160ddd1461015257806323b872dd146101705780632f745c591461018c575b600080fd5b6100ee60048036038101906100e99190610f3e565b6102c0565b6040516100fb9190610f86565b60405180910390f35b61011e60048036038101906101199190610fd7565b610327565b60405161012b919061109d565b60405180910390f35b61013c6103d3565b604051610149919061109d565b60405180910390f35b61015a610465565b60405161016791906110ce565b60405180910390f35b61018a60048036038101906101859190611147565b610472565b005b6101a660048036038101906101a1919061119a565b610482565b6040516101b391906110ce565b60405180910390f35b6101d660048036038101906101d19190610fd7565b610532565b6040516101e391906110ce565b60405180910390f35b61020660048036038101906102019190610fd7565b6105a3565b60405161021391906111e9565b60405180910390f35b61023660048036038101906102319190611204565b6105e5565b60405161024391906110ce565b60405180910390f35b6102546106a4565b60405161026191906110ce565b60405180910390f35b6102726106a9565b60405161027f919061109d565b60405180910390f35b6102a2600480360381019061029d9190611147565b61073b565b005b6102be60048036038101906102b99190611366565b610961565b005b6000806000837bffffffffffffffffffffffffffffffffffffffffffffffffffffffff19167bffffffffffffffffffffffffffffffffffffffffffffffffffffffff1916815260200190815260200160002060009054906101000a900460ff169050919050565b600a818154811061033757600080fd5b906000526020600020016000915090508054610352906113de565b80601f016020809104026020016040519081016040528092919081815260200182805461037e906113de565b80156103cb5780601f106103a0576101008083540402835291602001916103cb565b820191906000526020600020905b8154815290600101906020018083116103ae57829003601f168201915b505050505081565b6060600180546103e2906113de565b80601f016020809104026020016040519081016040528092919081815260200182805461040e906113de565b801561045b5780601f106104305761010080835404028352916020019161045b565b820191906000526020600020905b81548152906001019060200180831161043e57829003601f168201915b5050505050905090565b6000600680549050905090565b61047d83838361073b565b505050565b600061048d836105e5565b82106104ce576040517f08c379a00000000000000000000000000000000000000000000000000000000081526004016104c59061145c565b60405180910390fd5b600860008473ffffffffffffffffffffffffffffffffffffffff1673ffffffffffffffffffffffffffffffffffffffff168152602001908152602001600020828154811061051f5761051e61147c565b5b9060005260206000200154905092915050565b600061053c610465565b821061057d576040517f08c379a0000000000000000000000000000000000000000000000000000000008152600401610574906114f7565b60405180910390fd5b600682815481106105915761059061147c565b5b90600052602060002001549050919050565b6000806003600084815260200190815260200160002060009054906101000a900473ffffffffffffffffffffffffffffffffffffffff16905080915050919050565b60008073ffffffffffffffffffffffffffffffffffffffff168273ffffffffffffffffffffffffffffffffffffffff161415610656576040517f08c379a000000000000000000000000000000000000000000000000000000000815260040161064d90611589565b60405180910390fd5b61069d600460008473ffffffffffffffffffffffffffffffffffffffff1673ffffffffffffffffffffffffffffffffffffffff168152602001908152602001600020610a64565b9050919050565b600090565b6060600280546106b8906113de565b80601f01602080910402602001604051908101604052809291908181526020018280546106e4906113de565b80156107315780601f1061070657610100808354040283529160200191610731565b820191906000526020600020905b81548152906001019060200180831161071457829003601f168201915b5050505050905090565b600073ffffffffffffffffffffffffffffffffffffffff168273ffffffffffffffffffffffffffffffffffffffff1614156107ab576040517f08c379a00000000000000000000000000000000000000000000000000000000081526004016107a29061161b565b60405180910390fd5b6107b4816105a3565b73ffffffffffffffffffffffffffffffffffffffff168373ffffffffffffffffffffffffffffffffffffffff1614610821576040517f08c379a00000000000000000000000000000000000000000000000000000000081526004016108189061161b565b60405180910390fd5b610868600460008573ffffffffffffffffffffffffffffffffffffffff1673ffffffffffffffffffffffffffffffffffffffff168152602001908152602001600020610a72565b6108af600460008473ffffffffffffffffffffffffffffffffffffffff1673ffffffffffffffffffffffffffffffffffffffff168152602001908152602001600020610a95565b816003600083815260200190815260200160002060006101000a81548173ffffffffffffffffffffffffffffffffffffffff021916908373ffffffffffffffffffffffffffffffffffffffff160217905550808273ffffffffffffffffffffffffffffffffffffffff168473ffffffffffffffffffffffffffffffffffffffff167fddf252ad1be2c89b69c2b068fc378daa952ba7f163c4a11628f55a4df523b3ef60405160405180910390a4505050565b600b816040516109719190611677565b908152602001604051809103902060009054906101000a900460ff16156109cd576040517f08c379a00000000000000000000000000000000000000000000000000000000081526004016109c4906116da565b60405180910390fd5b600a81908060018154018082558091505060019003906000526020600020016000909190919091509080519060200190610a08929190610e2f565b5060006001600a80549050610a1d9190611729565b9050610a293382610ab4565b6001600b83604051610a3b9190611677565b908152602001604051809103902060006101000a81548160ff0219169083151502179055505050565b600081600001549050919050565b610a8a60018260000154610ad590919063ffffffff16565b816000018190555050565b6001816000016000828254610aaa919061175d565b9250508190555050565b610abe8282610b34565b610ac781610cb0565b610ad18282610cf9565b5050565b600082821115610b1a576040517f08c379a0000000000000000000000000000000000000000000000000000000008152600401610b11906117ff565b60405180910390fd5b60008284610b289190611729565b90508091505092915050565b600073ffffffffffffffffffffffffffffffffffffffff168273ffffffffffffffffffffffffffffffffffffffff161415610ba4576040517f08c379a0000000000000000000000000000000000000000000000000000000008152600401610b9b9061161b565b60405180910390fd5b610bad81610dbd565b15610bb757600080fd5b816003600083815260200190815260200160002060006101000a81548173ffffffffffffffffffffffffffffffffffffffff021916908373ffffffffffffffffffffffffffffffffffffffff160217905550610c50600460008473ffffffffffffffffffffffffffffffffffffffff1673ffffffffffffffffffffffffffffffffffffffff168152602001908152602001600020610a95565b808273ffffffffffffffffffffffffffffffffffffffff16600073ffffffffffffffffffffffffffffffffffffffff167fddf252ad1be2c89b69c2b068fc378daa952ba7f163c4a11628f55a4df523b3ef60405160405180910390a45050565b6006805490506007600083815260200190815260200160002081905550600681908060018154018082558091505060019003906000526020600020016000909190919091505550565b600860008373ffffffffffffffffffffffffffffffffffffffff1673ffffffffffffffffffffffffffffffffffffffff168152602001908152602001600020805490506009600083815260200190815260200160002081905550600860008373ffffffffffffffffffffffffffffffffffffffff1673ffffffffffffffffffffffffffffffffffffffff1681526020019081526020016000208190806001815401808255809150506001900390600052602060002001600090919091909150555050565b6000806003600084815260200190815260200160002060009054906101000a900473ffffffffffffffffffffffffffffffffffffffff169050600073ffffffffffffffffffffffffffffffffffffffff168173ffffffffffffffffffffffffffffffffffffffff161415915050919050565b828054610e3b906113de565b90600052602060002090601f016020900481019282610e5d5760008555610ea4565b82601f10610e7657805160ff1916838001178555610ea4565b82800160010185558215610ea4579182015b82811115610ea3578251825591602001919060010190610e88565b5b509050610eb19190610eb5565b5090565b5b80821115610ece576000816000905550600101610eb6565b5090565b6000604051905090565b600080fd5b600080fd5b60007fffffffff0000000000000000000000000000000000000000000000000000000082169050919050565b610f1b81610ee6565b8114610f2657600080fd5b50565b600081359050610f3881610f12565b92915050565b600060208284031215610f5457610f53610edc565b5b6000610f6284828501610f29565b91505092915050565b60008115159050919050565b610f8081610f6b565b82525050565b6000602082019050610f9b6000830184610f77565b92915050565b6000819050919050565b610fb481610fa1565b8114610fbf57600080fd5b50565b600081359050610fd181610fab565b92915050565b600060208284031215610fed57610fec610edc565b5b6000610ffb84828501610fc2565b91505092915050565b600081519050919050565b600082825260208201905092915050565b60005b8381101561103e578082015181840152602081019050611023565b8381111561104d576000848401525b50505050565b6000601f19601f8301169050919050565b600061106f82611004565b611079818561100f565b9350611089818560208601611020565b61109281611053565b840191505092915050565b600060208201905081810360008301526110b78184611064565b905092915050565b6110c881610fa1565b82525050565b60006020820190506110e360008301846110bf565b92915050565b600073ffffffffffffffffffffffffffffffffffffffff82169050919050565b6000611114826110e9565b9050919050565b61112481611109565b811461112f57600080fd5b50565b6000813590506111418161111b565b92915050565b6000806000606084860312156111605761115f610edc565b5b600061116e86828701611132565b935050602061117f86828701611132565b925050604061119086828701610fc2565b9150509250925092565b600080604083850312156111b1576111b0610edc565b5b60006111bf85828601611132565b92505060206111d085828601610fc2565b9150509250929050565b6111e381611109565b82525050565b60006020820190506111fe60008301846111da565b92915050565b60006020828403121561121a57611219610edc565b5b600061122884828501611132565b91505092915050565b600080fd5b600080fd5b7f4e487b7100000000000000000000000000000000000000000000000000000000600052604160045260246000fd5b61127382611053565b810181811067ffffffffffffffff821117156112925761129161123b565b5b80604052505050565b60006112a5610ed2565b90506112b1828261126a565b919050565b600067ffffffffffffffff8211156112d1576112d061123b565b5b6112da82611053565b9050602081019050919050565b82818337600083830152505050565b6000611309611304846112b6565b61129b565b90508281526020810184848401111561132557611324611236565b5b6113308482856112e7565b509392505050565b600082601f83011261134d5761134c611231565b5b813561135d8482602086016112f6565b91505092915050565b60006020828403121561137c5761137b610edc565b5b600082013567ffffffffffffffff81111561139a57611399610ee1565b5b6113a684828501611338565b91505092915050565b7f4e487b7100000000000000000000000000000000000000000000000000000000600052602260045260246000fd5b600060028204905060018216806113f657607f821691505b6020821081141561140a576114096113af565b5b50919050565b7f6f776e657220696e646578206973206f7574206f6620626f756e647321000000600082015250565b6000611446601d8361100f565b915061145182611410565b602082019050919050565b6000602082019050818103600083015261147581611439565b9050919050565b7f4e487b7100000000000000000000000000000000000000000000000000000000600052603260045260246000fd5b7f676c6f62616c20696e646578206973206f7574206f6620626f756e6473210000600082015250565b60006114e1601e8361100f565b91506114ec826114ab565b602082019050919050565b60006020820190508181036000830152611510816114d4565b9050919050565b7f6f776e657220717565727920666f72206e6f6e2d6578697374656e7420746f6b60008201527f656e000000000000000000000000000000000000000000000000000000000000602082015250565b600061157360228361100f565b915061157e82611517565b604082019050919050565b600060208201905081810360008301526115a281611566565b9050919050565b7f5245433732313a206d696e74696e6720746f20746865207a65726f206164647260008201527f6573730000000000000000000000000000000000000000000000000000000000602082015250565b600061160560238361100f565b9150611610826115a9565b604082019050919050565b60006020820190508181036000830152611634816115f8565b9050919050565b600081905092915050565b600061165182611004565b61165b818561163b565b935061166b818560208601611020565b80840191505092915050565b60006116838284611646565b915081905092915050565b7f4572726f722c206b7279746f426972647a206e6f742065786973740000000000600082015250565b60006116c4601b8361100f565b91506116cf8261168e565b602082019050919050565b600060208201905081810360008301526116f3816116b7565b9050919050565b7f4e487b7100000000000000000000000000000000000000000000000000000000600052601160045260246000fd5b600061173482610fa1565b915061173f83610fa1565b925082821015611752576117516116fa565b5b828203905092915050565b600061176882610fa1565b915061177383610fa1565b9250827fffffffffffffffffffffffffffffffffffffffffffffffffffffffffffffffff038211156117a8576117a76116fa565b5b828201905092915050565b7f536166654d6174683a207375627472616374696f6e204f766572666c6f770000600082015250565b60006117e9601e8361100f565b91506117f4826117b3565b602082019050919050565b60006020820190508181036000830152611818816117dc565b905091905056fea26469706673582212208893b2aca457029a313225867fc4b5f6af7d0495190adf7b4e95193bf6d99ee964736f6c634300080c0033",
  "immutableReferences": {},
  "source": "// SPDX-License-Identifier: MIT\npragma solidity ^0.8.0;\n\nimport './ERC721Connector.sol';\n\n\ncontract KryptoBird is ERC721Connector{\n\n    //array to store our nfts\n    string [] public kryptoBird;\n    mapping(string =>bool) krytoBirdzExists;\n\n    function mint(string memory _kryptoBird) public{\n        require(!krytoBirdzExists[_kryptoBird],'Error, krytoBirdz not exist');\n        // uint _id = KryptoBird.push(_kryptoBird); this is deprecated\n        kryptoBird.push(_kryptoBird);\n        uint _id =kryptoBird.length -1;\n        _mint(msg.sender,_id);\n\n        krytoBirdzExists[_kryptoBird] = true;\n    }\n    constructor() ERC721Connector('KryptoBird','KBIRDZ') {\n\n    }\n}",
  "sourcePath": "/home/softsquare/Desktop/Projects/nft-marketplace-starter-kit/src/contracts/KryptoBird.sol",
  "compiler": {
    "name": "solc",
    "version": "0.8.12+commit.f00d7308.Emscripten.clang"
  },
  "schemaVersion": "3.4.4",
  "updatedAt": "2022-02-22T06:47:57.713Z",
  "devdoc": {
    "kind": "dev",
    "methods": {
      "balanceOf(address)": {
        "details": "NFTs assigned to the zero address are considered invalid, and this  function throws for queries about the zero address.",
        "params": {
          "_owner": "An address for whom to query the balance"
        },
        "returns": {
          "_0": "The number of NFTs owned by `_owner`, possibly zero"
        }
      },
      "ownerOf(uint256)": {
        "details": "NFTs assigned to zero address are considered invalid, and queries  about them do throw.",
        "params": {
          "_tokenId": "The identifier for an NFT"
        },
        "returns": {
          "_0": "The address of the owner of the NFT"
        }
      },
      "supportsInterface(bytes4)": {
        "details": "Interface identification is specified in ERC-165. This function  uses less than 30,000 gas.",
        "params": {
          "interfaceID": "The interface identifier, as specified in ERC-165"
        },
        "returns": {
          "_0": "`true` if the contract implements `interfaceID` and  `interfaceID` is not 0xffffffff, `false` otherwise"
        }
      },
      "totalSupply()": {
        "returns": {
          "_0": "A count of valid NFTs tracked by this contract, where each one of  them has an assigned and queryable owner not equal to the zero address"
        }
      },
      "transferFrom(address,address,uint256)": {
        "details": "Throws unless `msg.sender` is the current owner, an authorized  operator, or the approved address for this NFT. Throws if `_from` is  not the current owner. Throws if `_to` is the zero address. Throws if  `_tokenId` is not a valid NFT.",
        "params": {
          "_from": "The current owner of the NFT",
          "_to": "The new owner",
          "_tokenId": "The NFT to transfer"
        }
      }
    },
    "version": 1
  },
  "userdoc": {
    "kind": "user",
    "methods": {
      "balanceOf(address)": {
        "notice": "Count all NFTs assigned to an owner"
      },
      "name()": {
        "notice": "A descriptive name for a collection of NFTs in this contract"
      },
      "ownerOf(uint256)": {
        "notice": "Find the owner of an NFT"
      },
      "supportsInterface(bytes4)": {
        "notice": "Query if a contract implements an interface"
      },
      "symbol()": {
        "notice": "An abbreviated name for NFTs in this contract"
      },
      "totalSupply()": {
        "notice": "Count NFTs tracked by this contract"
      },
      "transferFrom(address,address,uint256)": {
        "notice": "Transfer ownership of an NFT -- THE CALLER IS RESPONSIBLE  TO CONFIRM THAT `_to` IS CAPABLE OF RECEIVING NFTS OR ELSE  THEY MAY BE PERMANENTLY LOST"
      }
    },
    "version": 1
  }
}