{
  "contractName": "KryptoBird",
  "abi": [
    {
      "inputs": [],
      "stateMutability": "nonpayable",
      "type": "constructor"
    },
    {
      "anonymous": false,
      "inputs": [
        {
          "indexed": true,
          "internalType": "address",
          "name": "from",
          "type": "address"
        },
        {
          "indexed": true,
          "internalType": "address",
          "name": "to",
          "type": "address"
        },
        {
          "indexed": true,
          "internalType": "uint256",
          "name": "tokenId",
          "type": "uint256"
        }
      ],
      "name": "Trasnfer",
      "type": "event"
    },
    {
      "inputs": [
        {
          "internalType": "address",
          "name": "_owner",
          "type": "address"
        }
      ],
      "name": "balanceOf",
      "outputs": [
        {
          "internalType": "uint256",
          "name": "",
          "type": "uint256"
        }
      ],
      "stateMutability": "view",
      "type": "function",
      "constant": true
    },
    {
      "inputs": [
        {
          "internalType": "uint256",
          "name": "",
          "type": "uint256"
        }
      ],
      "name": "kryptoBirdz",
      "outputs": [
        {
          "internalType": "string",
          "name": "",
          "type": "string"
        }
      ],
      "stateMutability": "view",
      "type": "function",
      "constant": true
    },
    {
      "inputs": [],
      "name": "name",
      "outputs": [
        {
          "internalType": "string",
          "name": "",
          "type": "string"
        }
      ],
      "stateMutability": "view",
      "type": "function",
      "constant": true
    },
    {
      "inputs": [
        {
          "internalType": "uint256",
          "name": "_tokenId",
          "type": "uint256"
        }
      ],
      "name": "ownerOf",
      "outputs": [
        {
          "internalType": "address",
          "name": "",
          "type": "address"
        }
      ],
      "stateMutability": "view",
      "type": "function",
      "constant": true
    },
    {
      "inputs": [],
      "name": "symbol",
      "outputs": [
        {
          "internalType": "string",
          "name": "",
          "type": "string"
        }
      ],
      "stateMutability": "view",
      "type": "function",
      "constant": true
    },
    {
      "inputs": [
        {
          "internalType": "uint256",
          "name": "index",
          "type": "uint256"
        }
      ],
      "name": "tokenByIndex",
      "outputs": [
        {
          "internalType": "uint256",
          "name": "",
          "type": "uint256"
        }
      ],
      "stateMutability": "view",
      "type": "function",
      "constant": true
    },
    {
      "inputs": [],
      "name": "tokenByIndex",
      "outputs": [
        {
          "internalType": "uint256",
          "name": "",
          "type": "uint256"
        }
      ],
      "stateMutability": "view",
      "type": "function",
      "constant": true
    },
    {
      "inputs": [
        {
          "internalType": "address",
          "name": "owner",
          "type": "address"
        },
        {
          "internalType": "uint256",
          "name": "index",
          "type": "uint256"
        }
      ],
      "name": "tokenOfOwnerByIndex",
      "outputs": [
        {
          "internalType": "uint256",
          "name": "",
          "type": "uint256"
        }
      ],
      "stateMutability": "view",
      "type": "function",
      "constant": true
    },
    {
      "inputs": [],
      "name": "totalSupply",
      "outputs": [
        {
          "internalType": "uint256",
          "name": "",
          "type": "uint256"
        }
      ],
      "stateMutability": "view",
      "type": "function",
      "constant": true
    },
    {
      "inputs": [
        {
          "internalType": "address",
          "name": "_from",
          "type": "address"
        },
        {
          "internalType": "address",
          "name": "_to",
          "type": "address"
        },
        {
          "internalType": "uint256",
          "name": "_tokenId",
          "type": "uint256"
        }
      ],
      "name": "transferFrom",
      "outputs": [],
      "stateMutability": "nonpayable",
      "type": "function"
    },
    {
      "inputs": [
        {
          "internalType": "string",
          "name": "_kryptoBird",
          "type": "string"
        }
      ],
      "name": "mint",
      "outputs": [],
      "stateMutability": "nonpayable",
      "type": "function"
    }
  ],
  "bytecode": "0x60806040523480156200001157600080fd5b506040518060400160405280600a81526020017f4b727970746f42697264000000000000000000000000000000000000000000008152506040518060400160405280600681526020017f4b424952445a00000000000000000000000000000000000000000000000000008152508181816000908051906020019062000098929190620000bc565b508060019080519060200190620000b1929190620000bc565b5050505050620001d1565b828054620000ca906200019b565b90600052602060002090601f016020900481019282620000ee57600085556200013a565b82601f106200010957805160ff19168380011785556200013a565b828001600101855582156200013a579182015b82811115620001395782518255916020019190600101906200011c565b5b5090506200014991906200014d565b5090565b5b80821115620001685760008160009055506001016200014e565b5090565b7f4e487b7100000000000000000000000000000000000000000000000000000000600052602260045260246000fd5b60006002820490506001821680620001b457607f821691505b60208210811415620001cb57620001ca6200016c565b5b50919050565b6115e680620001e16000396000f3fe608060405234801561001057600080fd5b50600436106100a95760003560e01c80636352211e116100715780636352211e1461016657806370a082311461019657806383d7f6df146101c657806393ab6e56146101e457806395d89b4114610214578063d85d3d2714610232576100a9565b806306fdde03146100ae57806318160ddd146100cc57806323b872dd146100ea5780632f745c59146101065780634f6ccce714610136575b600080fd5b6100b661024e565b6040516100c39190610e06565b60405180910390f35b6100d46102e0565b6040516100e19190610e41565b60405180910390f35b61010460048036038101906100ff9190610efa565b6102ed565b005b610120600480360381019061011b9190610f4d565b6102fd565b60405161012d9190610e41565b60405180910390f35b610150600480360381019061014b9190610f8d565b6103ad565b60405161015d9190610e41565b60405180910390f35b610180600480360381019061017b9190610f8d565b61041e565b60405161018d9190610fc9565b60405180910390f35b6101b060048036038101906101ab9190610fe4565b610460565b6040516101bd9190610e41565b60405180910390f35b6101ce610518565b6040516101db9190610e41565b60405180910390f35b6101fe60048036038101906101f99190610f8d565b61051d565b60405161020b9190610e06565b60405180910390f35b61021c6105c9565b6040516102299190610e06565b60405180910390f35b61024c60048036038101906102479190611146565b61065b565b005b60606000805461025d906111be565b80601f0160208091040260200160405190810160405280929190818152602001828054610289906111be565b80156102d65780601f106102ab576101008083540402835291602001916102d6565b820191906000526020600020905b8154815290600101906020018083116102b957829003601f168201915b5050505050905090565b6000600580549050905090565b6102f883838361075e565b505050565b600061030883610460565b8210610349576040517f08c379a00000000000000000000000000000000000000000000000000000000081526004016103409061123c565b60405180910390fd5b600760008473ffffffffffffffffffffffffffffffffffffffff1673ffffffffffffffffffffffffffffffffffffffff168152602001908152602001600020828154811061039a5761039961125c565b5b9060005260206000200154905092915050565b60006103b76102e0565b82106103f8576040517f08c379a00000000000000000000000000000000000000000000000000000000081526004016103ef906112d7565b60405180910390fd5b6005828154811061040c5761040b61125c565b5b90600052602060002001549050919050565b6000806002600084815260200190815260200160002060009054906101000a900473ffffffffffffffffffffffffffffffffffffffff16905080915050919050565b60008073ffffffffffffffffffffffffffffffffffffffff168273ffffffffffffffffffffffffffffffffffffffff1614156104d1576040517f08c379a00000000000000000000000000000000000000000000000000000000081526004016104c890611369565b60405180910390fd5b600360008373ffffffffffffffffffffffffffffffffffffffff1673ffffffffffffffffffffffffffffffffffffffff168152602001908152602001600020549050919050565b600090565b6009818154811061052d57600080fd5b906000526020600020016000915090508054610548906111be565b80601f0160208091040260200160405190810160405280929190818152602001828054610574906111be565b80156105c15780601f10610596576101008083540402835291602001916105c1565b820191906000526020600020905b8154815290600101906020018083116105a457829003601f168201915b505050505081565b6060600180546105d8906111be565b80601f0160208091040260200160405190810160405280929190818152602001828054610604906111be565b80156106515780601f1061062657610100808354040283529160200191610651565b820191906000526020600020905b81548152906001019060200180831161063457829003601f168201915b5050505050905090565b600a8160405161066b91906113c5565b908152602001604051809103902060009054906101000a900460ff16156106c7576040517f08c379a00000000000000000000000000000000000000000000000000000000081526004016106be90611428565b60405180910390fd5b600981908060018154018082558091505060019003906000526020600020016000909190919091509080519060200190610702929190610cca565b50600060016009805490506107179190611477565b905061072333826109a0565b6001600a8360405161073591906113c5565b908152602001604051809103902060006101000a81548160ff0219169083151502179055505050565b600073ffffffffffffffffffffffffffffffffffffffff168273ffffffffffffffffffffffffffffffffffffffff1614156107ce576040517f08c379a00000000000000000000000000000000000000000000000000000000081526004016107c59061151d565b60405180910390fd5b6107d78161041e565b73ffffffffffffffffffffffffffffffffffffffff168373ffffffffffffffffffffffffffffffffffffffff1614610844576040517f08c379a000000000000000000000000000000000000000000000000000000000815260040161083b9061151d565b60405180910390fd5b600360008473ffffffffffffffffffffffffffffffffffffffff1673ffffffffffffffffffffffffffffffffffffffff16815260200190815260200160002060008154809291906108949061153d565b9190505550600360008373ffffffffffffffffffffffffffffffffffffffff1673ffffffffffffffffffffffffffffffffffffffff16815260200190815260200160002060008154809291906108e990611567565b9190505550816002600083815260200190815260200160002060006101000a81548173ffffffffffffffffffffffffffffffffffffffff021916908373ffffffffffffffffffffffffffffffffffffffff160217905550808273ffffffffffffffffffffffffffffffffffffffff168473ffffffffffffffffffffffffffffffffffffffff167f3bad7987490d6d1d80a026e79dff0621bacb49fc40e2899d3c99428833c11a5b60405160405180910390a4505050565b6109aa82826109c1565b6109b381610b4b565b6109bd8282610b94565b5050565b600073ffffffffffffffffffffffffffffffffffffffff168273ffffffffffffffffffffffffffffffffffffffff161415610a31576040517f08c379a0000000000000000000000000000000000000000000000000000000008152600401610a289061151d565b60405180910390fd5b610a3a81610c58565b15610a4457600080fd5b816002600083815260200190815260200160002060006101000a81548173ffffffffffffffffffffffffffffffffffffffff021916908373ffffffffffffffffffffffffffffffffffffffff160217905550600360008373ffffffffffffffffffffffffffffffffffffffff1673ffffffffffffffffffffffffffffffffffffffff1681526020019081526020016000206000815480929190610ae690611567565b9190505550808273ffffffffffffffffffffffffffffffffffffffff16600073ffffffffffffffffffffffffffffffffffffffff167f3bad7987490d6d1d80a026e79dff0621bacb49fc40e2899d3c99428833c11a5b60405160405180910390a45050565b6005805490506006600083815260200190815260200160002081905550600581908060018154018082558091505060019003906000526020600020016000909190919091505550565b600760008373ffffffffffffffffffffffffffffffffffffffff1673ffffffffffffffffffffffffffffffffffffffff168152602001908152602001600020805490506008600083815260200190815260200160002081905550600760008373ffffffffffffffffffffffffffffffffffffffff1673ffffffffffffffffffffffffffffffffffffffff1681526020019081526020016000208190806001815401808255809150506001900390600052602060002001600090919091909150555050565b6000806002600084815260200190815260200160002060009054906101000a900473ffffffffffffffffffffffffffffffffffffffff169050600073ffffffffffffffffffffffffffffffffffffffff168173ffffffffffffffffffffffffffffffffffffffff161415915050919050565b828054610cd6906111be565b90600052602060002090601f016020900481019282610cf85760008555610d3f565b82601f10610d1157805160ff1916838001178555610d3f565b82800160010185558215610d3f579182015b82811115610d3e578251825591602001919060010190610d23565b5b509050610d4c9190610d50565b5090565b5b80821115610d69576000816000905550600101610d51565b5090565b600081519050919050565b600082825260208201905092915050565b60005b83811015610da7578082015181840152602081019050610d8c565b83811115610db6576000848401525b50505050565b6000601f19601f8301169050919050565b6000610dd882610d6d565b610de28185610d78565b9350610df2818560208601610d89565b610dfb81610dbc565b840191505092915050565b60006020820190508181036000830152610e208184610dcd565b905092915050565b6000819050919050565b610e3b81610e28565b82525050565b6000602082019050610e566000830184610e32565b92915050565b6000604051905090565b600080fd5b600080fd5b600073ffffffffffffffffffffffffffffffffffffffff82169050919050565b6000610e9b82610e70565b9050919050565b610eab81610e90565b8114610eb657600080fd5b50565b600081359050610ec881610ea2565b92915050565b610ed781610e28565b8114610ee257600080fd5b50565b600081359050610ef481610ece565b92915050565b600080600060608486031215610f1357610f12610e66565b5b6000610f2186828701610eb9565b9350506020610f3286828701610eb9565b9250506040610f4386828701610ee5565b9150509250925092565b60008060408385031215610f6457610f63610e66565b5b6000610f7285828601610eb9565b9250506020610f8385828601610ee5565b9150509250929050565b600060208284031215610fa357610fa2610e66565b5b6000610fb184828501610ee5565b91505092915050565b610fc381610e90565b82525050565b6000602082019050610fde6000830184610fba565b92915050565b600060208284031215610ffa57610ff9610e66565b5b600061100884828501610eb9565b91505092915050565b600080fd5b600080fd5b7f4e487b7100000000000000000000000000000000000000000000000000000000600052604160045260246000fd5b61105382610dbc565b810181811067ffffffffffffffff821117156110725761107161101b565b5b80604052505050565b6000611085610e5c565b9050611091828261104a565b919050565b600067ffffffffffffffff8211156110b1576110b061101b565b5b6110ba82610dbc565b9050602081019050919050565b82818337600083830152505050565b60006110e96110e484611096565b61107b565b90508281526020810184848401111561110557611104611016565b5b6111108482856110c7565b509392505050565b600082601f83011261112d5761112c611011565b5b813561113d8482602086016110d6565b91505092915050565b60006020828403121561115c5761115b610e66565b5b600082013567ffffffffffffffff81111561117a57611179610e6b565b5b61118684828501611118565b91505092915050565b7f4e487b7100000000000000000000000000000000000000000000000000000000600052602260045260246000fd5b600060028204905060018216806111d657607f821691505b602082108114156111ea576111e961118f565b5b50919050565b7f6f776e657220696e646578206973206f7574206f6620626f756e647321000000600082015250565b6000611226601d83610d78565b9150611231826111f0565b602082019050919050565b6000602082019050818103600083015261125581611219565b9050919050565b7f4e487b7100000000000000000000000000000000000000000000000000000000600052603260045260246000fd5b7f676c6f62616c20696e646578206973206f7574206f6620626f756e6473210000600082015250565b60006112c1601e83610d78565b91506112cc8261128b565b602082019050919050565b600060208201905081810360008301526112f0816112b4565b9050919050565b7f6f776e657220717565727920666f72206e6f6e2d6578697374656e7420746f6b60008201527f656e000000000000000000000000000000000000000000000000000000000000602082015250565b6000611353602283610d78565b915061135e826112f7565b604082019050919050565b6000602082019050818103600083015261138281611346565b9050919050565b600081905092915050565b600061139f82610d6d565b6113a98185611389565b93506113b9818560208601610d89565b80840191505092915050565b60006113d18284611394565b915081905092915050565b7f4572726f722c206b7279746f426972647a206e6f742065786973740000000000600082015250565b6000611412601b83610d78565b915061141d826113dc565b602082019050919050565b6000602082019050818103600083015261144181611405565b9050919050565b7f4e487b7100000000000000000000000000000000000000000000000000000000600052601160045260246000fd5b600061148282610e28565b915061148d83610e28565b9250828210156114a05761149f611448565b5b828203905092915050565b7f5245433732313a206d696e74696e6720746f20746865207a65726f206164647260008201527f6573730000000000000000000000000000000000000000000000000000000000602082015250565b6000611507602383610d78565b9150611512826114ab565b604082019050919050565b60006020820190508181036000830152611536816114fa565b9050919050565b600061154882610e28565b9150600082141561155c5761155b611448565b5b600182039050919050565b600061157282610e28565b91507fffffffffffffffffffffffffffffffffffffffffffffffffffffffffffffffff8214156115a5576115a4611448565b5b60018201905091905056fea264697066735822122097e18f82ffa60571bf7a381391bb2aa17724c8c21c69eff7961db935e545ec1f64736f6c634300080b0033",
  "immutableReferences": {},
  "source": "// SPDX-License-Identifier: MIT\npragma solidity ^0.8.0;\n\nimport './ERC721Connector.sol';\n\n\ncontract KryptoBird is ERC721Connector{\n\n    //array to store our nfts\n    string [] public kryptoBirdz;\n    mapping(string =>bool) krytoBirdzExists;\n\n    function mint(string memory _kryptoBird) public{\n        require(!krytoBirdzExists[_kryptoBird],'Error, krytoBirdz not exist');\n        // uint _id = KryptoBirdz.push(_kryptoBird); this is deprecated\n        kryptoBirdz.push(_kryptoBird);\n        uint _id =kryptoBirdz.length -1;\n        _mint(msg.sender,_id);\n\n        krytoBirdzExists[_kryptoBird] = true;\n    }\n    constructor() ERC721Connector('KryptoBird','KBIRDZ') {\n\n    }\n}",
  "sourcePath": "/home/softsquare/Desktop/Projects/nft-marketplace-starter-kit/src/contracts/KryptoBirdz.sol",
  "compiler": {
    "name": "solc",
    "version": "0.8.11+commit.d7f03943.Emscripten.clang"
  },
  "schemaVersion": "3.4.4",
  "updatedAt": "2022-02-02T11:21:38.986Z",
  "networkType": "ethereum",
  "devdoc": {
    "kind": "dev",
    "methods": {},
    "version": 1
  },
  "userdoc": {
    "kind": "user",
    "methods": {},
    "version": 1
  }
}